:100000000C9434000C9449000C9449000C94490061
:100010000C9449000C9449000C9449000C9449003C
:100020000C9449000C9449000C9449000C9449002C
:100030000C9449000C9449000C9449000C9449001C
:100040000C9449000C9449000C9449000C9449000C
:100050000C9449000C9449000C9449000C944900FC
:100060000C9449000C94490011241FBECFEFD8E036
:10007000DEBFCDBF11E0A0E0B1E0E6E0FAE002C0F3
:1000800005900D92A438B107D9F70E94F6000C94A0
:1000900001050C94000094EA9093BC009091BC0080
:1000A00097FFFCCF9EE49093BB0094E89093BC0034
:1000B0009091BC0097FFFCCF8093BB0084E88093B5
:1000C000BC008091BC0087FFFCCF84E98093BC001A
:1000D0008091BC0084FDFCCF0895CF93C82F8C6025
:1000E0000E944B0085E08A95F1F700008C2F837FFA
:1000F00088600E944B0087EC90E00197F1F700C008
:100100000000CF910895CF93DF93D82FC62FC860FA
:10011000807F8C2B0E946D008D2F8295807F8C2B91
:100120000E946D0087EC90E00197F1F700C000009D
:10013000DF91CF91089560E00C94830081E00E94EC
:100140009B008FE39FE10197F1F700C00000089545
:10015000CF93DF9300D0CDB7DEB7198290E49A83B6
:10016000FE01E60FF11D9181890F80680F900F90BD
:10017000DF91CF910C949B00CF93DF93EC01899199
:10018000811103C0DF91CF91089561E00E94830047
:10019000F6CFCF93DF93EC0180E0282F30E0FE0113
:1001A000E20FF31F908191110FC0803178F480E14C
:1001B00090E0821B930B959587950E94A800CE0135
:1001C000DF91CF910C94BC008F5FE7CF80E0F5CF3B
:1001D000CF93682F80E00E94A800C0E161E080E238
:1001E0000E948300C150D1F7CF910895CF93DF9340
:1001F000CDB7DEB761970FB6F894DEBF0FBECDBFA7
:100200002098289A219A29981092B90088E480931E
:10021000B80084E08093BC0080E480937C0087E891
:1002200080937A002FEF40E782E0215040408040E9
:10023000E1F700C0000088E30E946D008FE19EE4BA
:100240000197F1F700C0000088E30E946D008FE97C
:100250009FE00197F1F700C0000088E30E946D0065
:1002600087E592E00197F1F700C0000088E20E9464
:100270006D0087E592E00197F1F700C0000088E289
:100280000E949B0088E00E949B0081E00E949B00EE
:100290008FE39FE10197F1F700C0000086E00E9424
:1002A0009B008CE00E949B008FE39FE10197F1F798
:1002B00000C000000E949E0060E08CE291E00E947D
:1002C000C90061E08BE391E00E94C9009FEF21E14A
:1002D0004AE7915020404040E1F700C000000E94F2
:1002E0009E0060E08CE491E00E94C90004E110E00F
:1002F0009AE5E92E91E0F92ECE0101966C011F934B
:100300000F93FF92EF92DF92CF920E94290281E039
:100310000E94E80061E0C6010E94C9009FEF23ED42
:1003200040E3915020404040E1F700C00000015000
:1003300011090F900F900F900F900F900F90F9F6FA
:100340000E949E0060E089E691E00E94C9008FEF64
:100350009DE329E4815090402040E1F700C0000077
:100360000E949E0099249A949FEF2FEF3FEF86E71B
:10037000A82E81E0B82E80917C00807F80937C0045
:1003800080917A00806480937A0080917A0086FD63
:10039000FCCF009178001091790083B1482F417013
:1003A000842EEE24E394053F41E0140708F4E12C89
:1003B00080958170F82E2017310711F49E15F9F001
:1003C00080E00E94E80060E080E00E94A800053F15
:1003D00081E01807C8F585E091E09F938F931F9304
:1003E0000F93BF92AF92DF92CF920E942902C60173
:1003F0000E94BC000FB6F894DEBF0FBECDBF9F14A5
:1004000079F081E00E94E80061E080E00E94A800AD
:100410008BE191E0811002C08AE091E00E94BC0073
:10042000053F91E0190710F4811011C0299A2FEFB0
:1004300049E688E1215040408040E1F700C00000DB
:100440009F2C9E2D980197CF80E091E0C6CF2998F0
:10045000EECFAEE0B0E0EFE2F2E00C94D8040D890C
:100460001E8986E08C831A8309838FEF9FE79E8322
:100470008D83AE01475E5F4F6F89788DCE01019607
:100480000E944C022F813885020F131FF801108241
:100490002E96E4E00C94F404ABE0B0E0E2E5F2E088
:1004A0000C94CA047C013B018A01FC01178216826C
:1004B000838181FFC8C1CE0101965C01F701938160
:1004C000F30193FD859193FF81913F01882309F406
:1004D00053C1853239F493FD859193FF81913F019A
:1004E000853229F4B70190E00E943C04E7CF912CBB
:1004F000212C312CFFE1F31538F08B3211F190F4FF
:10050000803209F1833229F137FC3CC020ED280FFD
:100510002A3050F536FE20C08AE0989E200D112426
:10052000922E06C08D3291F0803371F7689430F8C6
:10053000F30193FD859193FF81913F018111DACF02
:1005400021C0689431F8689432F8F2CF689433F897
:10055000EFCF689434F8ECCFEAE02E9E200D112402
:10056000222E689435F8E4CF8E3229F436FC04C18B
:10057000689436F8DDCF8C3619F4689437F8D8CF04
:100580008836B1F2982F9F7D95549330E0F08336F2
:10059000A1F18337C1F1833509F063C02801F2E08E
:1005A0004F0E511CF801C080D180692D70E036FCDF
:1005B00002C06FEF7FEFC6010E9426044C016894D1
:1005C00037F882010AC00C5F1F4FFFE3F9838824CC
:1005D0008394912C6501E89437F833FE2DC0522C9A
:1005E0008114910471F5552009F468CFB70180E2B8
:1005F00090E00E943C045A94F6CFF80180818983F0
:100600000E5F1F4FE4CF2801F2E04F0E511CF8019E
:10061000C080D180692D70E036FC02C06FEF7FEFA3
:10062000C6010E9431044C018201D5CFB70180E29E
:1006300090E00E943C042A942814190409F0B0F7B1
:10064000CECFF60137FC859137FE81916F01B7015E
:1006500090E00E943C0451105A94F1E08F1A9108E6
:10066000BFCF843619F0893609F077C0F80137FE1C
:100670006BC060817181828193810C5F1F4FF32D6C
:10068000FF763F2E97FF09C09095809570956195F4
:100690007F4F8F4F9F4F689437F82AE030E0A501D5
:1006A0000E946C04C82ECA188C2C432C36FE0CC039
:1006B000E89440F8C91440F434FE05C032FC03C08D
:1006C000F32DFE7E4F2E892C44FE95C0FE01EC0DCD
:1006D000F11D8081803309F087C0242D297E422EB0
:1006E000842D8870582E43FC95C040FE8FC09C2CF2
:1006F000821418F42C0C922C981844FE91C0B70167
:1007000080E390E00E943C0442FE09C088E790E04C
:1007100041FE02C088E590E0B7010E943C04C91484
:1007200008F48AC0CA94D12C9FEFC91AD90ACA0CFE
:10073000DB1CF60182916F01B70190E00E943C043E
:10074000AC14BD04B1F74FCF60817181072E000C4E
:10075000880B990B0E5F1F4F92CFD32CE894D4F8DF
:100760002AE030E0853739F1232D297FD22E8F36CC
:1007700001F148F48835A9F0F701868197812B961D
:10078000E2E10C94E604803749F08837A9F7D4FEFB
:1007900002C06894D2F820E130E00DC06894D4F82B
:1007A000F6CF34FE03C0822F8660D82E20E132E0DF
:1007B00002C028E030E0F801D7FE0FC060817181EF
:1007C000828193810C5F1F4FA5010E946C04C82E8B
:1007D000CA183D2CE89437F867CF6081718190E0AA
:1007E00080E00E5F1F4FF0CF42FC02C0839478CFB1
:1007F0008394839475CF842D867809F471CFF6CFD6
:10080000B70180E290E00E943C0483948214C0F31C
:10081000512C73CF522C5818821408F46ECFF8CF95
:10082000842D867809F47BCF8BE241FE80E247FC81
:100830008DE2B70190E071CFB70180E390E00E94B4
:100840003C049A946CCF8FEF9FEF99CFFC010590F9
:10085000615070400110D8F7809590958E0F9F1FC2
:100860000895FC016150704001900110D8F7809507
:1008700090958E0F9F1F08950F931F93CF93DF9333
:10088000182F092FEB018B8181FD09C01FEF0FEF9E
:10089000812F902FDF91CF911F910F91089582FFAB
:1008A00014C02E813F818C819D81281739073CF42B
:1008B000E881F981CF0101969983888310838E8125
:1008C0009F8101969F838E83E3CFE885F985812FF1
:1008D0000995892BA1F3DACFFA01AA27283051F123
:1008E000203181F1E8946F936E7F6E5F7F4F8F4F61
:1008F0009F4FAF4FB1E03ED0B4E03CD0670F781FC0
:10090000891F9A1FA11D680F791F8A1F911DA11DA4
:100910006A0F711D811D911DA11D20D009F46894DD
:100920003F912AE0269F11243019305D3193DEF685
:10093000CF010895462F4770405D4193B3E00FD03B
:10094000C9F7F6CF462F4F70405D4A3318F0495D26
:1009500031FD4052419302D0A9F7EACFB4E0A69509
:100960009795879577956795BA95C9F7009761052B
:10097000710508959B01AC010A2E06945795479581
:1009800037952795BA95C9F7620F731F841F951F76
:10099000A01D08952F923F924F925F926F927F9287
:1009A0008F929F92AF92BF92CF92DF92EF92FF927F
:1009B0000F931F93CF93DF93CDB7DEB7CA1BDB0B2B
:1009C0000FB6F894DEBF0FBECDBF09942A883988D0
:1009D00048885F846E847D848C849B84AA84B984D7
:1009E000C884DF80EE80FD800C811B81AA81B981E3
:1009F000CE0FD11D0FB6F894DEBF0FBECDBFED01F7
:060A00000895F894FFCFF9
:100A060048494748004C4F57200046495245204424
:100A160045544543544544202020004E4F20464926
:100A260052452044455445435445440046495245A1
:100A360020414E4420534D4F4B45004445544543B9
:100A460054494F4E2053595354454D005741524D2A
:100A5600494E472055502E2E2E005265616479204E
:100A6600696E3A20253275730053595354454D200B
:100A7600524541445900534D4F4B453A2534752054
:040A860025730000D4
:00000001FF
